{
  "contractName": "DvsToken",
  "abi": [
    {
      "inputs": [],
      "payable": false,
      "stateMutability": "nonpayable",
      "type": "constructor"
    },
    {
      "constant": true,
      "inputs": [],
      "name": "totalSupply",
      "outputs": [
        {
          "internalType": "uint256",
          "name": "",
          "type": "uint256"
        }
      ],
      "payable": false,
      "stateMutability": "view",
      "type": "function"
    }
  ],
  "bytecode": "0x6080604052348015600f57600080fd5b50620f42406000819055506084806100286000396000f3fe6080604052348015600f57600080fd5b506004361060285760003560e01c806318160ddd14602d575b600080fd5b60336049565b6040518082815260200191505060405180910390f35b6000548156fea265627a7a72315820ed04e26e807fe6ed8133c9200750702c96c7e242a374f56e5a466d1522b0777a64736f6c63430005100032",
  "source": "pragma solidity 0.5.16;\r\n\r\ncontract DvsToken{  \r\n    uint256 public totalSupply;\r\n\r\n    constructor() public{\r\n        totalSupply=1000000;\r\n    }\r\n\r\n}",
  "sourcePath": "D:\\blockchain_technology\\token_sale\\contracts\\DvsToken.sol",
  "compiler": {
    "name": "solc",
    "version": "0.5.16+commit.9c3226ce.Emscripten.clang"
  },
  "schemaVersion": "3.4.2",
  "updatedAt": "2021-08-15T05:24:17.824Z",
  "networkType": "ethereum",
  "devdoc": {
    "methods": {}
  },
  "userdoc": {
    "methods": {}
  }
}